:1000000000A80000000400004600000000000000FE
:1000100000000000000000000000000000000000E0
:10002000801878FFE4B8200118F6D8F99000007F16
:10003000007E07E4F0A3DFFCDEFA7581210231EDDA
:10004000EFB4100575B2928007EFB4040B75B28E51
:1000500075B6F9E4F5B7800DEFB4080975B28E7581
:10006000B6F375B70143B201223200022AA37F051D
:10007000123A0312383F12332C9002367401F00208
:100080002EEC0002355675B28E75B6F9E4F5B7431D
:10009000B20143AA010239EA00000002104925E03A
:1000A00025E02420F582E43403F583E0F8A3E0F9A9
:1000B000A3E0FAA3E0FB90032CE0FCA3E0FDA3E0A7
:1000C000FEA3E02275F00212221475F099E0FCA361
:1000D000E0FDEFA42451F582E5F03400F58322EF32
:1000E0002466FFEE34FEFE7C007D0A1220FD7D3288
:1000F00012210FEF249AFFEE3401FEEB75F002A4FB
:100100002433F582E5F03400F5832275F0021222E3
:1001100014E0FCA3E0FD75F099EFA42463F582E5FB
:10012000F03400F583EE75F002022214901CE0C357
:100130009BFBEE9AFAED99F9EC98F8E493FE7401C2
:1001400093FFE4FCFDC30221C675F099EEA424B42C
:10015000F582E5F03400F583E5822FF582E43583FE
:10016000F583E4F075F099EEA424BDF582E5F03452
:1001700000F583E5822FF582E43583F58322E0FEE6
:10018000A3E0FF9003E7E0FD75F002A42487F58269
:10019000E5F03400F583EE8FF012219A75F002ED50
:1001A000A42487F582E5F03400F58322EF2424FFB0
:1001B000EE34FAFE7C007D0A1220FD7D1E12210F16
:1001C000EF24DCFFEE3405FEEB75F002A4242DF5E0
:1001D00082E5F03400F58322F583E493FC74019307
:1001E000FD75F002EFA4229003D4E0FF75F099A40E
:1001F0002475F582E5F03400F5832275F002EBA456
:100200002427F582E5F03400F583E0FCA3E0FD75DA
:10021000F002EBA42421F582E5F03400F5832224DA
:1002200010F582E5F03402F583ECF0A3EDF09003D5
:10023000D4E0229003D3E0FE75F099A4243FF58228
:10024000E5F03400F583EF75F0020222149003E725
:10025000E0FD75F099A42499F582E5F03400F5836A
:10026000229003E775F099E0FFA42463F582E5F09E
:100270003400F58322C39BFBEE9AFAED99F9EC98D2
:10028000F822E04401F0E4900020F090031A22905C
:1002900003E775F099E0FFA4243FF582E5F0340010
:1002A000F58322F0A3F0A3F0A3F0A3F0A3F0A32220
:1002B00075F002EBA42427F582E5F03400F58322E3
:1002C0009003D4E025E024D6F582E43403F58322BC
:1002D000C3E0FDEF9D7480F86E9822E0FEA3E0C3BA
:1002E0009DFFEE9C22E0FCA3E0FD75F09922E0FE6C
:1002F000A3E0FFD322F583E0FCA3E0FD75F002222A
:10030000241CF582E43402F58322F090034AE05481
:10031000F0F022FFEB25E025E022F583E4F07F01F9
:1003200022CBEFCBEBD394032275F002A4240AF581
:1003300082E5F03402229003E7E0FF241FF582E417
:100340003402F5832274222EF582E43402F58322EE
:100350009003EFE0FF24B4F582E43400F58322EC4F
:10036000F0EDA3F09003E8E004F0229003EAE0FE51
:10037000A3E0FF229003E7E0FF75F09922E0440636
:10038000F09000207401F022EE8FF012219A75F0A7
:100390009922EB25E02492F582E4341EF58322EFC6
:1003A00025E024DCF582E43403F5832290001FE08D
:1003B000FF9003D4E0C39F222416F582E5F03402B7
:1003C00022749B2BF582E43402F58322744D2BF5C5
:1003D00082E43402F5832274F42BF582E43402F5CE
:1003E000832274322BF582E43403F58322740B2BC1
:1003F000F582E43403F58322743C2BF582E4340265
:10040000F5832274032BF582E43400F58322745CB7
:100410002BF582E43402F58322741B2BF582E4343D
:1004200003F58322742E2EF582E43402F5832275BF
:10043000F099A424B4F582E5F0340022E0FCA3E0B6
:10044000FDEC541F22E4F0A3F075F00222F074BD1D
:100450002FF582E43400F58322C3EF94F6EE648036
:10046000947F2290022DE0640122E4F0A3F075F065
:1004700099222401FFE43EFEE43DFDE43CFC9003B0
:100480002C22E49003CAF09002367402F022E49029
:100490000226F0900304F0222439F582E5F03400BE
:1004A000229003E7E0FD75F09922F074232EF58287
:1004B000E43402F583E4F022E025E024D2F582E47E
:1004C000341CF58322E0FCA3E0C3940AEC6480941E
:1004D0008022E0FF9003D6E0FEEFC8EEC80822A419
:1004E0002465F582E5F03400F583E022902EC5E422
:1004F000F0902ECDF0A3F022F582E43403F58322B0
:10050000940AEE648094802275F002EC022214E0DA
:10051000FEA3E0FF7C0022E0FCA3E0FDC3EF9DFF13
:10052000EE9C22902EC6F0902EC57401F022902EE3
:10053000C97428F09003D5E022902EC374ADF0A3C7
:100540007406F022EEA42463F582E5F03400229DC7
:10055000EC6480F8EE648098229003E8E0FF90035A
:10056000E7E022900235E004F0C3940A22F0900202
:1005700027F0900305F022EEF0A3EFF09003CAE01D
:10058000229003E7EFF0121309F583E0FEA3E07871
:1005900003CEC313CE13D8F99003EEF0E4A3F0908A
:1005A00003E9F09003E8F09003E8E0FFC39409400A
:1005B00003021773EF700C9003EC7404F0A374063D
:1005C000F080229003E7E0FFB401089003EC740888
:1005D000F0800AEFB402069003EC7407F09003EC8D
:1005E000E02407A3F0121241C083C0829003E8E028
:1005F000FED082D0831210A41211051212BB9003F8
:10060000EAF0A3EFF0121316E0601A75F099EF12FA
:100610001180C083C0829003E8E0D082D0831211A1
:1006200006E4F0A3F012134B123A8A9003ECE0FDBB
:100630003395E0FCC3EF12152F504312134B1214E5
:1006400081121180C083C0829003E8E0FCD082D088
:100650008312110612136812117FEC121106121286
:10066000CE940FEE6480948040030216EBC3EF94A7
:10067000F1EE6480947F400302173A0217161213BA
:100680004B123A8A9003EE1212B05004A3E004F029
:100690009003ECE0FF3395E0FEC3E49FFDE49EFC95
:1006A00012134BC312152F50069003E9E004F01209
:1006B0001443600302173A123A8A9003ED1212B003
:1006C000501E1213541210B3C083C0829003E8E08E
:1006D000FED082D0831210EBECF0A3EDF002173ABB
:1006E00012134B121481121180C083C0829003E850
:1006F000E0FCD082D08312110612136812117FEC35
:100700001212271212CE1214E04026121481121176
:1007100080C083C0829003E8E0FCD082D0831211B5
:100720000612144AED1212491214E8E475F0018021
:10073000261214395024121354121180C083C0821F
:100740009003E8E0FED082D083121106E4F0A3F01B
:100750001210F674FFF5F012219A121241C083C0F4
:10076000829003E8E0FED082D0831210A41211051B
:100770001212BBFE9003E7E01211CCC083C082903E
:1007800003E8E0D082D083121106EEF0EF1213429C
:1007900002158712144370389003E7E0FF242E12ED
:1007A0001407E0702B742E2F1214077401F0E490DC
:1007B00003E8F01213541210B3C083C0829003E810
:1007C000E0FED082D0831210EB12133FE0B409E3B5
:1007D0009003E9E0C3940440379003E7E0FF123848
:1007E000DA9003E7E0FF12361BEF602CE49003E899
:1007F000F01213541210B3C083C0829003E8E0FEDD
:10080000D082D0831210EB12133FE0B409E38008CA
:100810009003E7E0FF123A309003EFE0C394044006
:1008200037121316E070311238B69003E7E0FF126A
:100830003705EF602BE49003E8F01213541210B365
:10084000C083C0829003E8E0FED082D0831210EB18
:1008500012133FE0B409E3229003E7E0FF123A21CC
:10086000221225C3E49003D4F090001FE0FF900310
:10087000D4E0C39F4003021AC3E0FF1212A4E4F0C5
:10088000A3F012137FE4F0A3F09003E2F0A3F0A32F
:10089000F0A3F0A37409F0EF7003021ABA121EB2AB
:1008A0009003D4E0FF121561E49003D5F09003D5D6
:1008B000E0FFC3940940030219EC12144360069050
:1008C0000307E0601A900020E0701490031AE070B3
:1008D0000E9003D4E01211CC121226E4F0A3F09093
:1008E00003D5E0FF70030219E39003D4E0FE121178
:1008F000CC121226E0FCA3E0C39406EC6480948042
:10090000501C75F099EE1211CFC083C0829003D5B0
:10091000E0D082D083121106E4F0A3F0803D1211E2
:10092000C7C083C0829003D5E0FED082D08312116D
:10093000061214A5502575F099EFA42475F582E5EB
:10094000F03400121103C083C0821214EF7D021232
:100950002164D082D083EEF0A3EFF09003D4E0FFC7
:1009600075F0991214BFFCA3E0FD12137FEC8DF01B
:1009700012219A1211C7C083C0829003D5E0D082A1
:10098000D0831211061212C5EF1214BFFEA3E02D80
:10099000FFEE3CFE9003D4E0FD1212A4121368EDAA
:1009A0001211CFC083C0829003D5E0D082D08312D1
:1009B0001106E0FEA3E0FFC39003E3E09FEE648036
:1009C000F89003E2E064809850129003D5E0FD9027
:1009D00003E2EEF0A3EFF09003E6EDF09003D4E035
:1009E0001211CCC083C0829003D5E0D082D0831294
:1009F0001106E0FEA3E0FF9003E5E02FF09003E492
:100A0000E03EF09003D5E004F002188D9003E2E0A0
:100A1000FAA3E0FBC39003E5E09BF09003E4E09AC7
:100A2000F01214EF7D071221649003E4EEF0A3EFBF
:100A3000F0C3EB9FFFEA9EFED3EF9402EE64809436
:100A4000804031A3E06409602B1212A0C083C082F1
:100A5000E0FEA3E0FF9003E21214F7D082D083F00F
:100A6000A3EFF09003E4E0FEA3E0FF1212A0EE8FEC
:100A7000F012219A9003D4E0FF1212A4E0FCA3E04C
:100A80001211C01211F4ECF0A3EDF09003D4E0FFCA
:100A9000121380E0FCA3E01211C0121295ECF0A337
:100AA000EDF09003F7E060329003D4E0B4011275EA
:100AB000F0021211F3E0FFA3E09002F2CFF0A3EFF7
:100AC000F09003D4E0B4021275F0021211F3E0FFCB
:100AD000A3E0900233CFF0A3EFF09003D4E004F052
:100AE000021849E4900228F022123077758A3053B8
:100AF0008AEF0000007F08121020E49003D5F090E8
:100B000003D5E0FFC394094003021CABEF902EC84D
:100B10007013E0545FF0A3746AF0902EC374A5F0D4
:100B2000A3E4F0800EE044F0F0902EC374C0F0A374
:100B30007403F09003D5E0901CC993902ECAF0E4A2
:100B40009003D4F090001FE0FF9003D4E0FEC39F19
:100B50004003021CA274082E1214D8E0FF9003D6A2
:100B6000F0E4F5E2EFC39408503B7435121503C06E
:100B700083C0821214B28002C333D8FCD082D083E7
:100B8000F0902ECD7401F0C083C082E0FFC8EEC8A3
:100B9000088002C333D8FCD082D083F0902EC0747A
:100BA000C1F0021C219003D6E024F8F0743612152F
:100BB00003C083C0821214B28002C333D8FCD08237
:100BC000D083F0902ECE7401F0C083C082E0FFC8C5
:100BD000EEC8088002C333D8FCD082D083F0902EB8
:100BE000CB74F4F0EEB40510902EC97420F0902E62
:100BF000C374C0F0A37404F0EE6406701E12150EE8
:100C00006010902E4E30E0057410F0800B7408F0E8
:100C10008006902E4E7404F0121519EE6407701BB6
:100C200012150E600D902E4F30E00280087482F095
:100C30008006902E4F7402F0121519902EC074C2C7
:100C4000F0E4FFFE900001742EF0A3E4F09003D4D2
:100C5000E024081214D8E09003D6F0E5E220E20B7D
:100C60000FBF00010EBE07DCBFD0D953E2FB121448
:100C7000CC9003D6E0FD75F002A4FFAEF090000228
:100C8000E02FF0900001E03EF0ED901D0293FF9008
:100C90000001E475F0021221B085F082F583121292
:100CA000C5EF121277C083C0829003D5E0D082D006
:100CB00083121106ECF0A3EDF09003D4E004F002EF
:100CC0001B249003D5E004F0021ADF902ECBE4F051
:100CD000902EC6F0758A50538AEF0000007F0412F0
:100CE00010209002287401F0223F3F3F3F3F3F3FDA
:100CF0003F3F0032003203E8012C025800640258E2
:100D00000004001E000A000A000F0064000A000C24
:100D1000000C0000000000000000000000000001C6
:100D200001010D0E0F030405060708090A0B0C004C
:100D30000102003200320032003200320032003252
:100D40000032003200320032003200320032003213
:100D500000320037003700370037003700370037E0
:100D600000370037003700370037003700370037CB
:100D70000037002800280028002800280028002824
:100D80000028002800280028002800280028002823
:100D90000028002D002D002D002D002D002D002DF0
:100DA000002D002D002D002D002D002D002D002DDB
:100DB000002D005A005A005A005A005A005A005A90
:100DC000005A005A005A005A005A005A005A005A53
:100DD000005A005F005F005F005F005F005F005F20
:100DE000005F005F005F005F005F005F005F005F0B
:100DF000005F005000500050005000500050005064
:100E00000050005000500050005000500050005062
:100E10000050002D002D002D002D002D002D002D47
:100E2000002D002D002D002D002D002D002D002D5A
:100E3000002D00C800C800C800C800C800C800C80D
:100E400000C800C800C800C800C800C800C800C862
:100E500000C800CD00CD00CD00CD00CD00CD00CD2F
:100E600000CD00CD00CD00CD00CD00CD00CD00CD1A
:100E700000CD00BE00BE00BE00BE00BE00BE00BE73
:100E800000BE00BE00BE00BE00BE00BE00BE00BE72
:100E900000BE002D002D002D002D002D002D002D59
:100EA000002D002D002D002D002D002D002D002DDA
:100EB000002D00FA00FA00FA00FA00FA00FA00FA2F
:100EC00000FA00FA00FA00FA00FA00FA00FA00FA52
:100ED00000FA9003E7EFF0BF01089003EB7409F00C
:100EE000800D9003E7E0B402069003EB7407F0E492
:100EF0009003E8F09003E8E0FFC394094003022068
:100F000082EF603D121443703812126FC083C082AA
:100F10009003E8E0FED082D0831210A4121105ECF9
:100F2000F0A3EDF09003E7E0121232C083C082908C
:100F300003E8E0D082D083121106E4F0A3F002208F
:100F4000799003E7E0FF75F0991210B3C083C08277
:100F50009003E8E0FED082D0831211061212C5EF92
:100F6000A4243FF582E5F034001211031212BBFEF7
:100F70009003E9F0A3EFF0123A8A9003EB1212B05B
:100F8000400302200A12153912140F121151E0B455
:100F900001189003E71212161212C5EE1210B312C6
:100FA0001226ECF0A3EDF00220529003E9E0FEA33C
:100FB000E0FF12122DC083C0829003E8E0FCD082D3
:100FC000D083121106121368ED1212351214E812B2
:100FD00012CE1214E0402312122DC083C08290035F
:100FE000E8E0FCD082D08312110612144AED1210F0
:100FF000B31214E8E475F001802A1214395073908A
:1010000003E7E0FF121232C083C0829003E8E0FEE3
:10101000D082D08312110612144A1210B212110596
:1010200074FFF5F012219A02205212126FC083C091
:10103000829003E8E0FED082D0831210A412110542
:10104000ECF0A3EDF09003E71211CAC083C08290C8
:1010500003E8E0FED082D0831211061214A54012DC
:1010600075F099EF121412F583E5822E1211567461
:1010700001F0121539FE12140F121151E0640170C3
:1010800018121144E004121143E0D39405400A9071
:1010900003E8E0FF121129E4F09003E8E004F00215
:1010A0001ED422BB010689828A83E0225002E722F5
:1010B000BBFE02E32289828A83E49322BB010CE512
:1010C0008229F582E5833AF583E0225006E92582FC
:1010D000F8E622BBFE06E92582F8E222E58229F540
:1010E00082E5833AF583E49322BB010689828A83F1
:1010F000F0225002F722BBFE01F322F8BB010DE5FE
:101100008229F582E5833AF583E8F0225006E92545
:1011100082C8F622BBFE05E92582C8F222EF8DF0D7
:10112000A4A8F0CF8CF0A428CE8DF0A42EFE22BC73
:10113000000BBE0029EF8DF084FFADF022E4CCF867
:1011400075F008EF2FFFEE33FEEC33FCEE9DEC98CC
:101150004005FCEE9DFE0FD5F0E9E4CEFD22EDF852
:10116000F5F0EE8420D21CFEADF075F008EF2FFFF5
:10117000ED33FD4007985006D5F0F222C398FD0FDD
:10118000D5F0EA22C2D5EC30E709B2D5E4C39DFD23
:10119000E49CFCEE30E715B2D5E4C39FFFE49EFE6D
:1011A00012210FC3E49DFDE49CFC800312210F304B
:1011B000D507C3E49FFFE49EFE22C5F0F8A3E02814
:1011C000F0C5F0F8E582158270021583E038F02250
:1011D000A3F8E0C5F025F0F0E582158270021583D2
:1011E000E0C838F0E822EB9FF5F0EA9E42F0E99D76
:1011F00042F0E89C45F022ECF0A3EDF0A3EEF0A362
:10120000EFF022A8828583F0D083D0821221FA12D7
:1012100021FA1221FA1221FAE473E493A3C583C5DB
:10122000F0C583C8C582C8F0A3C583C5F0C583C80F
:10123000C582C822A42582F582E5F03583F5832294
:10124000EF4E6012EF60010EEDBB010B89828A83C5
:10125000F0A3DFFCDEFA2289F05007F709DFFCA9D2
:10126000F022BBFEFCF309DFFCA9F0229003D4744A
:101270007EF0E4A3F090001FE0FE9003D5E0FFC3F2
:101280009E40030223FB123774EF600312146E902A
:1012900003D5E0FA1212E0E060030223099003D5BF
:1012A000E0FF1213091212D5EF1210DFE0FEA3E0E7
:1012B000C39DEE9C404C9003D5E09003D4F01212F5
:1012C000E07401F0900226E004F0900304F0900333
:1012D000D5E0FF24221213287401F0123A4E900335
:1012E000D5E0FF123A5D9003D5E0FF123946900336
:1012F000D5E0FF12398E9003D5E012131B7401F074
:101300008012CFEACF123691EF60099003D5E01238
:10131000131BE4F09003D5E0FF1237A9EF7003022E
:1013200023F2E49002270223ED9003D5E0FF75F04D
:1013300002A41213981212D5EF1210DFE0FEA3E000
:10134000C39DEE9C50030223B79003D5E09003D4D5
:10135000F0123437EF70030223F2E4FF9003D5E07C
:10136000FE75F0991210B31212261212C51215242E
:10137000121224ECF0A3EDF00FEFB409DF9003D5C7
:10138000E01212E0E4F0900020E0FF700990031AF0
:10139000E07003022409EF601090031AE0600A1263
:1013A00012661212EA4405802A900020E060109034
:1013B000031AE0700A1212671212EA4401801490B4
:1013C0000020E0706490031AE0605E121266121250
:1013D000EA4404F0C28A229003D5E0FF1212E0E44E
:1013E000F0123A7B9003D5E0FF1239229003D5E04A
:1013F000FF123A6C9003D5E0FF12396A9003D5E0F2
:1014000024221213287401F0900227E004F09003C4
:1014100005F09003D5E004F00222559003D4E0FFDC
:1014200090022BE06F6002EFF022CBEFCB12129014
:10143000E0FEA3E0FF1211EFE0FCA3E0FDC39FEC90
:101440009E50030224F4E42DFFEC3404FE121290AB
:101450001214F71211A7EEF0A3EFF0121290E0FEB3
:10146000A3E0FF1211EFE0FCA3E0C39FFFEC9E128C
:1014700010DAEEF0A3EFF0121372E493FE7401930E
:10148000FF1210DBE0FCA3E0FDD39FEC9E4058125E
:101490001372E493FE740193FFC3ED9FFFEC9EC3B0
:1014A00013FEEF13FF1213727401932FFFE4933EA8
:1014B0001210DA12155764036003022530EBB401F1
:1014C0000F1210DCE0FFA3E0900231CFF0A3EFF0A9
:1014D000EB6402707B1210DBE0FFA3E0900330CFDF
:1014E000F0A3EFF00225301210DB1214EF7D63122F
:1014F00020FD0D12210F1210DB121557B4030BEB58
:10150000B40107E4900231F0A3F0EB640270419063
:10151000033080391211EFE0FEA3E0FF121290E0D9
:10152000FCA3E0C39FEC9EC3940475F002EB501241
:101530001210DFE4F0A3F01211A87404F0A3E4F099
:10154000800E1210DFE4F0A3F01211A8E4F0A3F073
:10155000EB640170441210DB1212CE949AEE9401E7
:1015600040081210BFEEF0A3EFF01210DB12141CB3
:10157000900354F0EDA3F01211A81212CE94DCEEF9
:101580009405400812118CEEF0A3EFF01211A8128E
:10159000141C900358F0EDA3F0EB64027044121099
:1015A000DB1212CE949AEE940140081210BFEEF0B6
:1015B000A3EFF01210DB12141C900356F0EDA3F011
:1015C0001211A81212CE94DCEE9405400812118C70
:1015D000EEF0A3EFF01211A812141C90035AF0EDD4
:1015E000A3F022E49003E8F0A3F09003EC7403F07E
:1015F0002405A3F0122DA2E49003E7F09003E7E0A6
:10160000FFC3940940030226E475F002EF12124969
:101610001212D71210B21212BBFE9003EAF0A3EF1F
:10162000F0123A8A9003EC1212B050209003E9E0D5
:1016300004F0A312115E1212CE1214E0400302262F
:101640007D12143940030226B90226A09003E8E077
:1016500004F012144360030226B99003EAE0FEA3EB
:10166000E0FF123A8A9003EDD31212B1401D9003AD
:10167000E7E0FF75F0021210B3E0FCA3E01211C026
:1016800012124AECF0A3EDF00226B99003EA12110F
:101690005E1212CE9464EE6480948040189003E74A
:1016A000E0FD75F002121180121425ED121249E4CA
:1016B00075F0018021C3EF949CEE6480947F5019F3
:1016C0009003E7E0FF75F002121180121425EF126B
:1016D000124974FFF5F012219A9003E775F0021297
:1016E00012471212D71210B21212BBFE9003E7E09B
:1016F00075F0021211CFEEF0A3EFF09003E7E004D3
:10170000F00225DC9003E8E0C3940440028031C37A
:10171000900111E09404900110E0648094804026D0
:101720009001AAE094049001A9E06480948040169E
:10173000900078E09403900077E064809480400605
:1017400090022D7401F09003E9E0C39406403790B5
:10175000022DE06031E4FF1238FEE4FF123656EF4E
:101760006029E490022DF09003EEF090001FE0FF5E
:101770009003EEE0FEC39F5012121404E4F09003B5
:10178000EEE004F080E5E4FF123A3F22900236E0FA
:101790006402703090030604F09003CDE0B40108B9
:1017A0009003417401F08005E4900341F0900348F8
:1017B000E0B401089000007401F08005E49000009E
:1017C000F07F0222E4FE90001FE0FFEEC39F400383
:1017D000022911121325E06401600302290D741C13
:1017E0002E1212E2E0FC6003022859EE6401703D03
:1017F0001212EB900305E0FD6401701B900304E0FE
:1018000090034AB40109E0440912126504801512DC
:10181000126212154D8016ED90034AB4020BE0449B
:101820000512126512148A8004121262F0EE64022C
:1018300060030229061212EB900305E0FD640170BB
:101840001C900304E090034AB4010612135DE48087
:1018500021E0440412126512154D022906ED900391
:101860004AB40205E044058003E04404F0E490003B
:1018700020F090031AF0022906EC640160030229AB
:1018800006EE6401704F1212EB900304E0FFB40205
:101890000B90034AE0440A1213608013EF64017056
:1018A00026900227E090034AB4010C12135DE490E5
:1018B000031A12148A801EE04402121360E490039B
:1018C0001AF012146F800E90034AE0440212136063
:1018D000E490031AF0EE6402704C1212EB900304D1
:1018E000E0B4021390034AE0440AF090031A740132
:1018F000F0900020F0802F900226E06401701C9090
:101900000305E090034AB40105E044098013E04474
:101910000812126504F012146E800B90034AE04422
:101920000812126504F0121325E4F0C28A0E022791
:10193000A67F04229003CEE060069003CAE004F084
:101940009003CAE0B4010BE49003CEF09003CAE028
:1019500004F09003CAE0B40320D3900232E0946410
:10196000900231E09400500E900331E094649003B3
:1019700030E0940040031214629003CDE0640170E3
:101980005B9003D4F012138C4003022A78E0FF2509
:10199000E02432F582E4341D1211B81211FFFF2544
:1019A000E02412F582E4341D1211B812130D121244
:1019B00007FF25E02452F582E4341D1211B81213FA
:1019C00098121207FF25E02472F582E4341D1211EB
:1019D000B812147812120704F0022965900348E047
:1019E0006401705B9003D4F012138C504FE0FF251C
:1019F000E02432F582E4341E1211B81211FFFF25E3
:101A0000E02412F582E4341E1211B812130D1212E2
:101A100007FF25E02452F582E4341E1211B8121398
:101A200098121207FF25E02472F582E4341E121189
:101A3000B812147812120704F00229C8022A78E4B6
:101A40009003D4F012138C504FE0FF25E024B2F540
:101A500082E4341D1211B81211FFFF25E02492F523
:101A600082E4341D1211B812130D121207FF25E083
:101A700024D2F582E4341D1211B812139812120701
:101A8000FF25E024F2F582E4341D1211B812147817
:101A900012120704F0022A2490020CA3E090034ED5
:101AA000F090034BE0B4AA0312338B900365E0700F
:101AB00011A3E0B4100CE4900365F0A37410F012CD
:101AC00033E822C0E0C083C082C0D0E8C0E0E9C0F3
:101AD000E0EAC0E0EBC0E0EFC0E0D2AFE5DB30E42D
:101AE0001CD2089003CFE4F0E5DB30E102803890AF
:101AF0000349E5DFF09003CBE4F0022C17E5DB307F
:101B0000E5169003457401F09003CFE06005E4F022
:101B1000022C17C208022C179003CFE4F0E5DB304B
:101B2000E12AE5DB30E00FA31237E11237EA122099
:101B30009CF5DF022C179003CCE064016003022CBB
:101B400017308A03022C17D28A022C179003CF7405
:101B500001F09003CBE0700DA3E5DFF09003CB74B0
:101B600001F0022C179003CCE090323293FFB4FFC7
:101B70000F900349E5DFF09003CCE004F0022C1154
:101B8000EF640F702F9003D01237E19003CCE0FF89
:101B9000123808540F1220C99003D01237E1900375
:101BA000CCE0FF04F0123808FFE5DF54F04F1220BC
:101BB000C9022C119003D01237E11237EAE5DF1287
:101BC00020DB9003CCE0FF64147044E5DFB42025F3
:101BD000900342E06004E4F0800B9003CE7401F0C7
:101BE0009003CAE4F09003CD7401F0900348E4F050
:101BF00090024C04F0E5DFB410159003CEE4F090B1
:101C000003CAF0900348F09003CDF090024CF0EF3F
:101C1000B4161EE5DFB4200B9003487401F0900366
:101C2000CDE4F0E5DFB41009900348E4F09003CD73
:101C3000F0900347E004F075DBFFD0E0FFD0E0FB5D
:101C4000D0E0FAD0E0F9D0E0F8D0D0D082D083D084
:101C5000E0327F051234CAEF600AE4900342F07F5D
:101C600005123A03900236E024FE601814601E1438
:101C70007003022D2924036003022DA1121467E4CE
:101C8000900303F09002367403F0022EEC121AC98E
:101C9000900228E07003022D02900303E004F0E4B8
:101CA0009003D3F090001FE0FF9003D3E0C39F5058
:101CB00071E4FF1212131212C5121524121224EC31
:101CC000F0A3EDF01212131212C5EE1210B312129D
:101CD00026ECF0A3EDF00FEFB409D89003D3E0FFAA
:101CE0001210DCE4F0A3F0EF1211A97404F0A3E4E5
:101CF000F0EFB40110E4900354F0A3F09003587493
:101D000004F0E4A3F0EFB40210E4900356F0A3F063
:101D100090035A7404F0E4A3F09003D3E004F002BB
:101D20002C84900303E0C394035003022DA1900080
:101D300012747EF0E4900229F0900303F07F0E12FB
:101D40003A129002367404F0229003CAE0B4020BF7
:101D50007403F07F04123A0312383F9003CAE0B4D0
:101D600003107F041234CAEF60087F04123A031292
:101D70001462123483121AC9123483900228E0606C
:101D800040121841123483E49003D3F090001FE016
:101D9000FE9003D3E0FFC39E501912373D1235DD8C
:101DA0009003D3E0FF12240A1234839003D3E0049B
:101DB000F080D912381112224C12276C900236EFA3
:101DC000F0229003F27402F0E49003EFF09003EF3E
:101DD000E0FFC394094003022EEB75F0021210B22B
:101DE000E0FCA3E01211C01212781212BBFE9003A5
:101DF000F0F0A3EFF0123A8A9003F21212B040030F
:101E0000022E83121330E0B4013075F002EF12118C
:101E1000CFE0FEA3E0C3941EEE64809480400302F2
:101E20002EB99003EFE075F00212127775F00212EE
:101E300010ADECF0A3EDF0022EB99003F0E0FEA39C
:101E4000E0FF9003EFE0FD75F002121235EE8FF027
:101E500012219A75F002ED1212351212CE9402EE92
:101E60006480948040189003EFE0FD75F002121238
:101E700035121425ED1210B3E475F0018020C3EF84
:101E800094FEEE6480947F50509003EFE0FF75F075
:101E9000021212351214251210B274FFF5F012213D
:101EA0009A80369003EF75F0021212751212D71253
:101EB00010B2ECF0A3EDF09003EFE0FF75F002122A
:101EC00011CFE0FCA3E0C3941EEC64809480400931
:101ED00074B42F1213377401F09003EFE01213352E
:101EE000E0B4011E9003EFE0FF24BD121431E004C2
:101EF00012142DE0D394054009121330E412142D6E
:101F0000E4F09003EFE004F0022DAD227E027F109A
:101F10007D007B017A00792112222012359BE4900A
:101F2000023FF0900341E090035D70057410F08073
:101F3000037420F0900000E090035F70057410F0CF
:101F400080037420F0122914E4FE90001FE0FFEEDD
:101F5000C39F5079E4FF75F099EE1211801212269A
:101F600012144AEEA424ABF582E5F03400121151AC
:101F7000E4F075F099EEA42499F582E5F0340012AE
:101F80001224E4F0A3F0121129E4F00FEF640970B9
:101F9000C5CFEECF123A30123A3F121404E4F012D9
:101FA0003A4E123A6C123A5D123A7B741C2E12129F
:101FB000E2E4F0121325E4F0900225747EF0E4A32D
:101FC000F0A3F0900304F0A3F00E022F2AE4900295
:101FD0002DF090022B747EF0900012F0E490022A13
:101FE000F022E49003D5F0FF9003D4F0EF14601ECC
:101FF00014603514604C14605B240470749003D634
:102000007401F0A3742FF0A37458F002304B123710
:10201000DE90000112209CFED3941F40031237F77C
:102020001220836E704B80431237DE900002122024
:102030009CFED3940640031237F71220836E703152
:1020400080291237DE90000312209CFE1220836E3E
:10205000701F80171237DE90000412209CFE648BE4
:1020600060031237F71220836E70069003D4E004E9
:10207000F00FEF64056003022FCC9003D4E0B405A9
:1020800004A37401F09003D5E0FD600790035EE0C7
:10209000547FF0CFEDCF22300803023120E5DB3052
:1020A000E203023120D2AF53A88053A90853AA08F3
:1020B00043A908E4F58B758E1C758E1CF58643AA22
:1020C00008758DA020086BE5DB20E266758A305329
:1020D0008AEF438A84200851E5DB20E24C758703B0
:1020E000000000AF8E90031EE4F0A3EFF090031EFB
:1020F000E4F0A3741CF0121096FF90023780259034
:10210000031EE07002A3E0602090031FE024FFF0B4
:1021100090031EE034FFF012154340E3E4F0121088
:10212000961214521221D780D6758A50538AEF0026
:102130000000758B05E4F58D53AA0143AA01D2AFC7
:1021400022758A50538AEF9003F57411F09003F4CE
:102150007422F09003F67433F075997F759A80E4D9
:10216000FFFEC29600000020970ED29600000030BD
:1021700097069003F57487F00FBF00010EEF640A15
:102180004E70DF7590FF75993F759AC0E4FEFF3081
:1021900096032097069003F47487F00FBF00010E9A
:1021A000EF640A4E70E9E4F5AD75AEE075AF1DF56C
:1021B000AC75800C7589FF75913E75991FF5967504
:1021C000931CF59BF595F592F59AD28A9003F70446
:1021D000F0220236CCE493A3F8E493A34003F68004
:1021E00001F208DFF48029E493A3F85407240CC813
:1021F000C333C4540F4420C8834004F456800146BE
:10220000F6DFE4800B01020408102040809032B217
:10221000E47E019360BCA3FF543F30E509541FFEE8
:10222000E493A360010ECF54C025E060A840B8E459
:1022300093A3FAE493A3F8E493A3C8C582C8CAC5DC
:1022400083CAF0A3C8C582C8CAC583CADFE9DEE76E
:1022500080BE0F000000FFFF00000000FFFFFFFF37
:10226000FFFFFFFFFF000000000000000000000073
:10227000000000000000000000000000000000005E
:10228000000000000000000000000000000000004E
:10229000000000000000000000000000000000003E
:1022A000000000000000000000000000000000002E
:1022B000000000000000000000000000000000001E
:1022C000000000000000000000000000000000000E
:1022D00000004103030041023500410306004100B4
:1022E000200041031A004103410041000000420266
:1022F000310000420330000041024C0041023F0027
:1023000041023B004103070042031E000044023724
:10231000000000004103CB004103CC004203430016
:102320000041034500410347004103460041034982
:10233000104103CE004103CA00410342014103CDD5
:102340000041034800C1084103CF0000902EC0E4C3
:10235000F0902ECB74F4F0902F58E0540F24F090AE
:102360002EC8F0902ECC7448F0902EC97428F0A39B
:10237000743FF0902E407481121283F0A3F0A304F6
:102380001212837402F0A3F0902EC67434F0902ED3
:10239000C174B0F0A3E4F0A37480F0A37407F04319
:1023A000E3101239CF90001FEFF0229003D5741084
:1023B000F0A3E4F0A3743FF0A374FFF0E4FDFCF994
:1023C000758A10538AEF0000009003D5E0FEA3E069
:1023D0001237FEFF69F90DBD00010CBC2FEBBDFFEC
:1023E000E89003D7E0FEA3E0F5828E83E493697062
:1023F0000890034B7404F08005E490034BF0758A59
:1024000050538AEF000000227F007E10E4FDFC9014
:1024100003D5F0A3F0758A10538AEF000000EF1285
:1024200037FEFB9003D6E02BF09003D5E03400F0AC
:102430000DBD00010CED7003EC643070E19003D52C
:10244000E0FCA3E0FDEC900365F0EDA3F0758A508D
:10245000538AEF000000229003D6EFF0E0FF241B28
:102460001213FCE0603A90024CE064017011EF122C
:10247000107E121255901CD812111B40238012900E
:1024800003D6E012107E121255901CDE12111B4072
:102490000F9003D6E0241BF582E434031212FA22D3
:1024A0007F002290023BE024FE601114602524038B
:1024B000703730883490023B7402F02220882A90D2
:1024C000023B7403F09003077401F07F0E123A127E
:1024D0000238677F0E123510EF600E7F0E123A122F
:1024E000E490023BF0900307F0229003D4EFF0C396
:1024F000940F5039E0FF249B1213A4E0602FEF25C6
:10250000E025E024B6F582E4340212108912125557
:102510009003D412149812111B400F9003D4E0249E
:102520009BF582E434021212FA227F00227F0022FD
:102530009003D4EFF0C3940F5039E0FF244D1213F1
:10254000AFE0602FEF25E025E0245FF582E4340260
:102550001210891212559003D412149812111B40B4
:102560000F9003D4E0244DF582E434021212FA22D3
:102570007F00227F0022C0E0C0F0C083C082C0D0B4
:10258000E8C0E0ECC0E0EDC0E0EEC0E0EFC0E0D2BB
:10259000AF121543400BE4F01210961214521221A0
:1025A000D7D0E0FFD0E0FED0E0FDD0E0FCD0E0F8F6
:1025B000D0D0D082D083D0F0D0E0327E007F807D3A
:1025C000007B017A03794A12222090034A7405F0B5
:1025D000A314F0E4A3F090035C74ABF090035E747A
:1025E000A8F09003F5E0900350F09003F4E090031E
:1025F00051F09003F6E0900352F0022FC29003F7DF
:10260000E06037C39002F3E094209002F2E0944E31
:1026100050069003F67487F0C3900234E094C8909B
:102620000233E0943250069003F67487F0E490038E
:10263000F7F09003F6E0900352F0229003F0EFF0F1
:10264000E0FF24321213C5E06029EF25E025E024E5
:1026500035F582E43403121089121255901CE412ED
:10266000111B400F9003F0E02432F582E434031292
:1026700012FA227F00229003EFEFF0E0FF240B120A
:1026800013D0E06029EF25E025E0240EF582E43444
:1026900003121089121255901CE612111B400F9064
:1026A00003EFE0240BF582E434031212FA227F00D8
:1026B000229003D6EFF0E0FF243C1213DBE0602908
:1026C000EF25E025E02440F582E43402121089125F
:1026D0001255901CD412111B400F9003D6E0243CDD
:1026E000F582E434021212FA227F0022752001538F
:1026F000A87F12312112388F43A88012104E121079
:1027000066758DE01239B2EF24E0600A2410700A79
:10271000C283C2828004D283D282122914438D20C4
:10272000122C3280DF9003F0EFF0E0FF24F412135C
:10273000BAE06026EF25E025E024F7F582E43402D4
:10274000121089901CD612110F400F9003F0E02454
:10275000F4F582E434021212FA227F0022CBEFCB8E
:10276000EB640170121211DBE090039AF01211EF8A
:10277000A3E090039B8015EB640270171211DBE05D
:1027800090039EF01211EFA3E090039FF0ECA3F0F2
:10279000EDA3F0229003D6EFF0E0FF24031213E63E
:1027A000E06023EF25E025E02406F582E434001202
:1027B000108912110C400F9003D6E02403F582E437
:1027C00034001212FA227F00229003D6EFF0E0FFCD
:1027D000245C1213F1E06023EF25E025E024AAF544
:1027E00082E4340212108912110C400F9003D6E0DB
:1027F000245CF582E434021212FA227F0022900354
:10280000D6E0FBA3E0FAA3E0F9229003CCE0FF04BA
:10281000F08F82758300229003D57401F0222DF58C
:1028200082EE3CF583E49322E92FF9E43AFA0220A0
:1028300083E4FFFE90001FE0FDEEC39D501BEF12EE
:1028400010DC1212D7EE1210DFE0FAA3E0D39DEAFB
:102850009C4003CFEECF0E80DB90022CEFF022CB1A
:10286000EFCBEBD3940F501E1213A1E0701812138C
:10287000A17401F01210961212F324B6F582E4341A
:1028800002F5831221D722CBEFCBEBD3940F501E4E
:102890001213ACE070181213AC7401F012109612FF
:1028A00012F3245FF582E43402F5831221D72290DB
:1028B00003D07401F0A37403F0A3744AF0E4F5DAD2
:1028C00075DA4043DA2075D74075DA5843A90875A0
:1028D000B80875F80822121301501E1213B7E070E1
:1028E000181213B77401F01210961212F324F7F5B0
:1028F00082E43402F5831221D722121301501E12F2
:1029000013C2E070181213C27401F0121096121262
:10291000F32435F582E43403F5831221D722121310
:1029200001501E1213CDE070181213CD7401F01275
:1029300010961212F3240EF582E43403F58312216B
:10294000D722121301501E1213D8E070181213D898
:102950007401F01210961212F32440F582E434024E
:10296000F5831221D722121301501E1213E3E070D7
:10297000181213E37401F01210961212F32406F5E4
:1029800082E43400F5831221D722121301501E1263
:1029900013EEE070181213EE7401F012109612127A
:1029A000F324AAF582E43402F5831221D72212130C
:1029B00001501E1213F9E070181213F97401F0128D
:1029C00010961212F32420F582E43403F5831221C9
:1029D000D722E4FD900345E0601190034AE0FE54E5
:1029E000F0FDEE540FF0E4900345F0CFEDCF22124E
:1029F00014CCFFFEEE901CF293600974082F1214A1
:102A0000D8EEF00F0EEEB410EB2290032C1221E35F
:102A1000000000007E007F0F7D007B017A02794D6F
:102A2000022220EFD3940F5008749B2F1213A4E4BA
:102A3000F022EFD3940F5008744D2F1213AFE4F02F
:102A400022EFD39403500874F42F1213BAE4F02247
:102A5000EFD39403500874322F1213C5E4F022EF21
:102A6000D394035008740B2F1213D0E4F022EFD349
:102A700094035008743C2F1213DBE4F022EFD3943C
:102A800003500874032F1213E6E4F022EFD39403EB
:102A90005008745C2F1213F1E4F022EFD39403502A
:102AA00008741B2F1213FCE4F022EE30E707C3E496
:102AB0009FFFE49EFE2200000000000000000000D6
:102AC0000000000000000000000000000000000006
:102AD00000000000000000000000000000000000F6
:102AE00000000000000000000000000000000000E6
:102AF00000000000000000000000000000000000D6
:103010000000000000000000000000000000009F11
:00000001FF
