:1000000000080020B1030000000000000000000014
:1000100000000000000000000000000000000000E0
:1000200000000000000000000000000000000000D0
:10003000000000000000000000000000BD01000002
:10004000C101000000000000F5010000C102000035
:10005000000000000000000000000000002934D073
:100060000123002210B488422CD301242407A1428A
:1000700004D2814202D209011B01F8E7E400A14247
:1000800004D2814202D249005B00F8E7884201D3E2
:10009000401A1A434C08A04202D3001B5C082243BA
:1000A0008C08A04202D3001B9C082243CC08A0422B
:1000B00002D3001BDC082243002803D01B0901D017
:1000C0000909E3E7101C10BC7047002801D000208C
:1000D000C04307B4024802A14018029003BDC046C5
:1000E000D90000000029F0D003B5FFF7B9FF0EBC1E
:1000F0004243891A1847C046002941D010B4041C55
:100100004C40A44601230022002900D54942002882
:1001100000D5404288422CD301242407A14204D2B6
:10012000814202D209011B01F8E7E400A14204D296
:10013000814202D249005B00F8E7884201D3401AAD
:100140001A434C08A04202D3001B5C0822438C08CF
:10015000A04202D3001B9C082243CC08A04202D339
:10016000001BDC082243002803D01B0901D0090929
:10017000E3E7101C6446002C00D5404210BC7047D9
:10018000002806D003DB0020C043400801E08020A7
:10019000000607B4024802A14018029003BDC04601
:1001A000190000000029EBD003B5FFF7A7FF0EBC34
:1001B0004243891A1847C0467047C046FEE7000010
:1001C00008B5094B01211970084B00201870084B25
:1001D0001B6850331B78834201D0032100E0181CB8
:1001E00002F064F908BDC046F40300203F0000405F
:1001F0000000002038B5A025ED052B691B011B0F61
:10020000082B0CD12D4900230B604B60AA8A52BAEF
:10021000081C8A600C30103102F072FF40E0022BA3
:100220000CD1264BD96800293AD05A681869824205
:1002300036DA501C58602B7D8B5431E0042B2AD1C8
:100240001E4CE368002B24D0226821698A4209DA17
:100250009B5CAB61A3689A1890B202F08FFF236891
:10026000013314E0A368201C211CD2180C3010317B
:1002700002F046FFE368002B0BD0A16822688818C3
:10028000A0601B7880B2AB6102F078FF012323608D
:1002900006E0AB6104E0012B02D1084B00225A605A
:1002A000C046A023DB05DA6801210A43DA60C046B4
:1002B0008022D96852000A43DA6038BD78020020F3
:1002C000F7B501F0E5F84369002B01D0013B43612C
:1002D0000123C3564269002B08D0012B38D1244B8F
:1002E000244C196824684B7901941AE0204B214C66
:1002F000196824680B79002B2AD0013BCD182D7A80
:100300001D4EAD00AD192E68251C5C352D780327D8
:100310006DB27D43AD186D00ED180635AD002E5061
:10032000E9E7013B14D3CD182D7B134CAD002D19FB
:100330002E68019D03245D352D780F796DB26543DC
:10034000AD186D00ED18ED190635AD002E50E8E73B
:100350008023DB050121002A04D000221A70597085
:10036000197004E00548C17019705A701A70F7BD11
:10037000140400200000002020010040F4030020AD
:10038000064AA023DB051A60054A064B1A60064A96
:10039000064B1A60BFF36F8F7047C04601030049D8
:1003A0000101020004000050010F0101080000508B
:1003B000F8B58023DB055A680F2313404A4A1F21F2
:1003C00011600133102B0CD08022D20554680F210C
:1003D000181C8C430840211C014301335160DBB2DF
:1003E000F0E70023414A42499A188A4204D241491F
:1003F000C95804331160F5E73F4B404A191D043BCF
:10040000934203D200221A600B1CF6E7EFF3088236
:100410003B4B191D043B9A4203D93A4818600B1C08
:10042000F7E7FFF7ADFF38493848053901F04EF8D6
:10043000374C384D01235B4223716371A371E37123
:100440002B1C3C331A782B1C3D331B781B021343A7
:10045000012B02D0012002F043FE2F4B2F491888B8
:100460002F4A88420BD06E7D18882B7D360233438D
:10047000984204D113889BB223711B0A63711388BD
:100480008B421BD0EE7DA87D138836023043834219
:1004900014D100200423013BDBB2FF2B07D0214EF7
:1004A000EF18F65C3F79B742F5D10120F3E7002859
:1004B00004D013889BB2A3711B0AE371637922797C
:1004C0001B0213438B4206D0E279A37912021A432E
:1004D000124B9A4204D1144B04221A6062B6FEE712
:1004E00000F076F8F7E7C04650000040000000201A
:1004F00078020020203500007C020020ED0300205F
:1005000030040020CDCDCDCD004000000000000023
:10051000FE030020C03F0000D03D0000FFFF0000B0
:10052000BE3F0000D23D000000E100E0014B18603A
:100530007047C04608040020014B18687047C04649
:1005400008040020014B18607047C0460C040020CE
:10055000014B18687047C0460000002038B5094CB0
:10056000256801F091FEA861256801F093FE064A16
:10057000064912680968E861127C097823684A43D1
:100580001A6138BD00000020080400200C0400207F
:1005900008B500F0F3FD021E05D10449A9230B7133
:1005A00002F056FDFEE7FFF7D9FF08BD100300205B
:1005B00008B502F041FF00F05FFF08BD08B502F08A
:1005C00097FF02F03DFF00F057FF01F04BF908BD27
:1005D000F0B58FB004AF02F04FFC051C02F048FFED
:1005E00002F05EFF00F0B6FDFFF7D2FF02F044FC20
:1005F000041E022C7ED0022805D8002810D0012825
:100600006BD0251CF2E7092800D1A9E00D2800D104
:10061000BBE00528F5D102F06DFC01F0E3FD9AE0A6
:100620006B467B605C4B6A461B68211C5B68052639
:100630009B000A33DB08DB00D21A954604AAFA6055
:100640006A46D21A954604ABBB60544B1B681A1C11
:100650005C325E33107050701870381C14221430E5
:1006600002F055FFBA687A6101F09EF8012E0AD0B7
:10067000002E24D0022E0AD0052E27D101F090FBA7
:10068000C0B202F027FDF868002102F09BFA02F0E8
:1006900097FD061C02F0A0FD386002F0A3FD3E4B62
:1006A00000901B68B21C5B6801933B1C14330293DF
:1006B00000230393F868B9683B6800F0C9FB3A1C53
:1006C0000020291C143200F001FA061C02F0D4FBB1
:1006D0000028CBD07B689D4693E702F00BFC02F02C
:1006E000CBFB0128FBD002F0B3FEFFF751FF02F075
:1006F000CDFA86E7FFF75CFF02F084FB002001F0F3
:10070000EBFBFFF72BFF02F0F5FB02F0FDFB051EF4
:10071000062D0BD0062804D8052810D101F094F836
:100720000DE0142805D0172803D008E001F09AF84E
:1007300005E002F0F1FB011C281C00F00DFC02F0AA
:100740009BFB0228E1D0FFF739FF002001F0C4FB3A
:10075000FFF704FF55E702F08FFB0528FBD050E7B9
:1007600002F0C8FB0E494323002203200B7102F064
:100770006FFC0020012101F0BFFE002001F016FCFB
:1007800002F07AFB0928EDD03BE702F0B3FB02F060
:1007900073FB0D28FBD034E7680200200000002026
:1007A00010030020F8B500F073FE041C02F010FEE8
:1007B000264A1368161C191C9F6CF4225031FF3214
:1007C0000D78234B974206DC0279501E8241D2B24B
:1007D000002A21D101E001221EE018681E2812DD46
:1007E000002D03D01B485C68844203DC1A489C68D7
:1007F000844201DD012000E0002008700021196022
:100800005960996004E09868216F5A6041189960B6
:1008100019680131196003E000211960596099607D
:10082000316800200B1C5233187082420BD15031BA
:100830000A78824203D0954205D0012202E0002DC1
:1008400001D002221A700120F8BDC046000000202D
:100850008C02002030750000C027090038B52B4CF1
:100860002268157902F0B4FD0379002B02D16BB236
:10087000013303D123680025DD600FE02368D968C8
:100880001A69914202DAD9680131D96004215956B6
:10089000012903D0DB68934200DB0125226813792C
:1008A0009D4209D01A4900202B1C0E33021C0B71EB
:1008B00002F0CEFB23681D7123681A79002A03D148
:1008C000144A1268127804E0012A03D1114A12680E
:1008D00052781A60186801F031FE2368051C586DC3
:1008E00001F058FE2D1A002D0ADD2368186801F06A
:1008F00025FE2368051C586D01F04CFE281A00E007
:10090000012000F0C9FF00F0D3FF38BD0000002037
:10091000100300200C040020F7B50F1C019002F01A
:10092000E7FD051C02F0B0FA061C02F0BBFA002E2F
:1009300003D0002002F0B0FA5DE0304C012F09D066
:10094000022F0DD1301C02F0B9FB23680122503375
:100950001A7005E0381C02F0B1FB236850331E709A
:1009600002F0A6FB2368061C50331B7883420FD08D
:10097000002802D01023012501E01223051C204984
:100980000020021C0B7102F063FB236850331E70C1
:1009900002F0AEFD0026A8422ED01949FE23321CDB
:1009A000301C0B7102F054FB02F0A2FD02F048FD76
:1009B000071C281C02F044FD009002F099FD281C41
:1009C00002F090FD02F06CFD0E4B1B685B7CB342A5
:1009D0000BD0009A391C01982A312A3202F07EFC91
:1009E000301C092101F088FD06E02368301C5333D8
:1009F0001E7001F071FA0126301CFEBD00000020BF
:100A00001003002008040020F0B50E1C2849051C26
:100A1000A622002087B00A71021C02F019FB254AA9
:100A2000254C1268236812781A60FFF717FF311CF3
:100A3000281C00F077F9039000F054FF01F08EF9C4
:100A400001F078FA1D4F1E493B6804265B680220BE
:100A50004B7067230B712368CE709A6902F0F8FA25
:100A60003A6804A9012390680B7053682268C31880
:100A7000DBB292694B708B700023CB700B714E719F
:100A8000062000921A1C02F0A9FA23685221286855
:100A90005956FFF741FF002800D10398094B1A6807
:100AA000094B9A4202D001F09DFBFEE707B0F0BD72
:100AB000100300200C040020000000206802002029
:100AC000700000202C040020CDCDCDCDF7B500AFB7
:100AD000051C0C1C3A6002F081FC1D4B69461B682A
:100AE0005A689200131C0A33DB08DB00C91A8D46D2
:100AF0007960081C002102F00AFDAC4201D002F02E
:100B0000F9F9144E002233689A6002F0DDFA041CF1
:100B100001F046F9A04204D0201C01F05FF9022444
:100B200012E079683868FFF76FFF33680A4A9968FE
:100B3000041C914202D09A6801329A60002803D1C5
:100B400002F09AF9A842E0D0BD46201CFEBDC04686
:100B50006802002000000020FFFFFF7FF0B587B093
:100B600001930CAB1B780D1C5BB2161C002B05D03F
:100B7000012B06D1D1239C46CD2702E020239C46A1
:100B8000CC27194B1B6853331B78002B01D0002353
:100B900003700478002C18D002F012FB2B78027C32
:100BA0009A420ED30133DBB22B7003930F49019BA2
:100BB000002003AA049605930F71002402F048FA5E
:100BC0000FE000232B7001240BE0019B07490493E5
:100BD0000920634603AA039605940B7102F038FAC4
:100BE0002C70201C07B0F0BD000000207700002012
:100BF000F0B58DB00591089002F0E2FA069002F08F
:100C0000EBFA041C02F0EEFA434F09903B68089897
:100C1000424D191C9B6900902868069A406838313B
:100C2000023201900294059800F0CAFB2B683C4CFC
:100C30005B687F216370E37807908B4304228020F8
:100C4000134340420343E37001206A23211C059AA9
:100C5000237102F0FDF90AA901220A702A68002610
:100C6000906853680422C318DBB24B708B704B79C9
:100C70007F208343802013434042059A03434B71F6
:100C8000CE700E7107200092331C321C02F0A6F9C0
:100C90003B68D96B181C9B6B5F300493069B122238
:100CA0009B5E049A00F05AFA3B68181C191CDA6B18
:100CB0005F309B6B60310096FFF750FFB04227D149
:100CC000079BB3421FD1296809983B68496882682D
:100CD0001B6808980091059902F058FB0E23A37138
:100CE0002B687F215B6804226370E378101C8B43C0
:100CF00013430B40E370211C6923089A237102F00F
:100D0000A7F9079BA371059800F062FA002000E0A4
:100D100001200DB0F0BDC046000000206802002098
:100D20007000002038B50C1C051C02F051FB0A4B6A
:100D3000002118683022203002F0E9FB211C2868CD
:100D4000FFF756FF041E05D1FFF72CFD00F05AFAFD
:100D500000F0B4FA201C38BD00000020F0B53A4B7A
:100D600087B01B6885680493DB69041C1A68037CE0
:100D70009B005A51037C354A0133DBB21768037478
:100D800039698B4211DB0020207439690B1C013B4F
:100D900003D39A00AA588018F9E7637CE6689B00A1
:100DA0000193FFF7A9F9019A9051237C01939B00CD
:100DB000ED180023181C0199994206D09A00AA1A2E
:100DC000043A126801338018F5E7FD6800222B1CF5
:100DD0000392627C0292013B09D302998B42F8D0C4
:100DE000E1689A005258039989180391F1E73E6926
:100DF000291CFFF781F9311CFFF77EF90299059054
:100E00008B000199721AE1685858291C5043FFF76A
:100E100025F9311CFFF722F9059A291C16180398A9
:100E2000FFF76AF9019B3618002B02D1029B0133B0
:100E30006374627CFB689A4201DB0023637404994B
:100E4000CB691E6007B0F0BD0000002068020020E2
:100E5000F0B589B00793002411AB0D1C1C57059207
:100E6000069002F0ADF90F9B04909A000021281C17
:100E700002F04DFB354B201C1E680321331C503300
:100E80001B78002B00D1012101F03CFB7065002C88
:100E900016D1049A1678002E18D02C4F01213B68E9
:100EA00050331878002801D00020092101F024FBDC
:100EB0003B68281C99690F9A02F002FA013EEAE7A2
:100EC000012C03D1049A1678002E29D1201C00F0A1
:100ED000CBFF061C201C00F0EFFF02940190059947
:100EE00006980E9A0F9B009602F082F9049A281C2D
:100EF000137805990093079A0F9B02F01DFA144C82
:100F00000E23A3710F9B04206370211C69232A1CEC
:100F10002371E07002F09CF80023A37109B0F0BDCA
:100F20000A4F01203B68092150331B78002B00D168
:100F3000011C01F0E1FA1098FFF710FF3B68281C34
:100F4000D9690F9A02F0BCF9013EBDE7000000200C
:100F50007000002070477047F0B57B4B8BB01C6869
:100F600000AF786139616068A16842185200131CB3
:100F70000833DB08DB006846C01A85466B46002153
:100F8000BB6002F0C4FA6068A16842189200131CAA
:100F90000A33DB08DB006846C01A8546002102F0F0
:100FA000B6FA6168A3686E46CA189200131C0A3329
:100FB000DB08DB00F01A85466B46FF21BB6102F0BF
:100FC000A6FA6068A1684218D31DDB08DB006846FA
:100FD000C01A85466B460021FB6002F098FAA368B0
:100FE00062686C46D2189200131C0A33DB08DB00DF
:100FF000E41AA546201C0021FC6102F088FA7C69F5
:10100000142C02D0172C04D009E0F869002101F05B
:10101000D9FD3D69002D02D14C4B1B68DD7C3D6143
:101020003D69002D44D07D69172D3DD10020092157
:1010300001F062FA444B1B685D689B68ED18013D46
:10104000AC00691C30D000F01DFA3F4B1B685B6898
:101050009D4203DA031C2C332B3002E0031C48337F
:10106000473019780378C91A394BC9B21B689B6994
:101070001859FEF7F3FF3259031E934200D2131C96
:10108000B96933510B59984200D9181C3359BA69C0
:101090001051181A7F23FD2801D84008C3B2F86800
:1010A000043C4355013DCCE73C69013C3C61B7E75A
:1010B000254C7D69226851689368CB18142D17D090
:1010C000172D1DD0BE68012202211FE0FD699A0084
:1010D0005559F869E903890D0A256943B961B15089
:1010E000105C4006400E03D06843C0114118B15057
:1010F000013BEBD2FFF72EFF00231A1C042105E071
:10110000FFF729FF0122FE683B69111C24680120BA
:101110002025E855A568606821242818C0B222253A
:10112000E055E855D201002023241143E055252045
:10113000C155381C24252030311CEB5501F0F4FE3C
:10114000BD460BB0F0BDC046680200200804002078
:101150000000002008B501F0F5FD08BD10B5002A1B
:1011600002DD8A18D40F06E00024A24203D1012434
:10117000994200DB141C047010BD0000114B642266
:1011800010B51A8000F044FE00F028FB00F0D4F9FE
:1011900000F056FA00F07EFA00F0FCFA01F020FAB6
:1011A000041C00F0A1F9084B1B681A78074B1B6858
:1011B000002A01D0032200E002221A6162B6201C3C
:1011C00010BDC046BC000040140400206800002090
:1011D0000A4B196800238B60094B1B685B685A1C1B
:1011E00092008A180832013B07D399004158002920
:1011F00000DC00211160043AF5E77047700200201E
:10120000680200202A4BF7B51C6801F0B5FE0023E8
:10121000A360284B201D1E68274B71681B684A1C61
:1012200092000193821843182B33043201393ED3C4
:101230007068814202DA019D287801E0019FF87808
:101240001568002D03D0854201DA00201060106877
:10125000002812D018787F2801D0013018700020A3
:101260001856032803DC01204042106002E0A06809
:101270000130A0600020187116E000255D57032D95
:1012800011DD1569002D0FD01F79BC460127BC4424
:101290006746FFB21F717FB2012F04DC1560A068A2
:1012A0000130A06000E01870013B043ABEE7F7BDD2
:1012B000700200206802002024040020F0B53D4B9D
:1012C00085B01E6801F058FE01F050FE3A4B0190C7
:1012D0001B680F275B685D1CAD0075195C1E083527
:1012E0001F40631C5FD0344B1B685968334B1B682D
:1012F0008C4202DA18785B7801E0D8781B79009389
:101300002A692B689C4682421EDC83421CDD03ABAB
:1013100000229A70802252421A708C4203DBD2B2B1
:1013200040210A431A7003A803780F2293433B43DA
:1013300003706346FF2B00DDFF23437001F026FEA0
:101340000121201C0A1C25E0009B9A4224DD9C45BB
:1013500022DC03AB0020188098708C4203DB1978E4
:1013600040200143197003A803780F218B433B43AE
:101370000370019B042B01D1427006E0019B092BF5
:1013800003D192B24270120A827001F0FFFD201C5C
:101390000021012200F0ACFD2B68013C2B61013FD4
:1013A000043D0F239CE7B3683371F36001F002FE44
:1013B00005B0F0BD70020020680200202404002067
:1013C000F7B5071C00930020099C08610D69013CDA
:1013D00009943CD30998009B147886009859002CF6
:1013E00004D00A9B099C1B5758438009089CA459A8
:1013F000A40B201A002813DD0A24135F98420BDB8C
:10140000C31A9C460B689C448B6864469C46012327
:101410009C440C6064468C60A84212DD086110E0B8
:1014200000280ED00C23D55EA84206DC4C68451B74
:1014300065194D60CD680135CD604B69984200DA81
:1014400048610D69B851A842BEDA281CBCE70620E5
:10145000135EE817DA0F9D425041C0B2FEBD000096
:10146000014B18607047C04614040020014B1868F7
:101470007047C04614040020014B18607047C046F6
:1014800010040020014B18687047C046100400206B
:10149000014B18687047C04668000020094B0022C5
:1014A000191C1878013312180748D2B28342F8D1B8
:1014B00009780020AA2903D11878121A5042504105
:1014C000C0B27047500001005F00010080235B0440
:1014D0000022188059809A801989012001431981BE
:1014E000C046988980B27047104BC022920098582D
:1014F0000F49014099509958FF20814340200143F2
:101500009950985880210002000AC905014399505A
:10151000042201211A60196008211960FC3300219E
:101520005960044B19690A431A61704700E100E0F1
:10153000FFFF00FF00ED00E070B5334E0422346879
:101540003248211D01F0DAFF211C08310422304805
:1015500001F0D4FF211C0C3104222E4801F0CEFFF3
:10156000211C103104222C4801F0C8FF211C8025C9
:10157000143104222948ED0501F0C0FFFFF78EFF6A
:1015800000283FD0326813781B071B0F0F2B0AD19E
:10159000234B19780F2906D819786868214B49051B
:1015A00003400B436B60204B19688905890F0129A3
:1015B0000CD11E4908780F2808D808780F21084058
:1015C0001C681B49400321400143196013795B06E5
:1015D0001B0F042B01D1174B06E0062B01D1164B34
:1015E00002E0082B0ED1154B1A780F2A0AD8197869
:1015F0008023DB050F2211409A687820C9008243BE
:101600000A439A6070BDC0461004002008000040E4
:101610000C00004010000040140000401C0000407E
:1016200052000100FFFF1FE0B4000040580001001D
:10163000FF1FFEFF5B0001005A000100590001007E
:1016400013B5002200920192104A6846126801AB5D
:10165000148E2E32117842787F208243222002435A
:101660006846427000988022D2055062188824058E
:10167000000B240D0003204318800198044B09033C
:1016800003400B43A832136013BDC0461004002072
:10169000FF0FF0FF3C4B70B51E688024331CE4053F
:1016A0002A331978231CC03318687F2290431140D5
:1016B000021C04250A43201C311C1A6018312A1C04
:1016C000D83001F01BFF201C311C2A1C1C31DC30DF
:1016D00001F014FF201C311C2A1C2031E03001F0E5
:1016E0000DFF201C311C2A1C2431E43001F006FFC0
:1016F000201C311C2A1C1031143001F0FFFE236B1A
:10170000082293432363236B02222B432363236B1F
:10171000761993432363236B012213432363F27FE0
:10172000A16C013A194BD2B292030B401343A3644C
:10173000A26C8023DB031343A364231CD4331968F6
:10174000F022D2020A431A601968FC2252040A43AA
:101750001A601A6860218A4320210A431A60A26C29
:101760000B4B1340802292041343A364B4342368C8
:101770000F2293431D4325602368F02293434022A8
:101780001343236070BDC04610040020FF3FC0FF1C
:10179000FFFFFFC08023DB0500221A659A67012244
:1017A00052425A667047000008B5034800211022D3
:1017B00001F0ADFE08BDC04620010040054B80226F
:1017C000196812030A431A601968034A0A401A602A
:1017D0007047C046B4000040FFFFF7FF08B5144B48
:1017E000144A19680A401A6019688022D2020A4312
:1017F0001A601968104A0A40802149020A431A6097
:101800001968802252010A431A6019680B4A0A407B
:101810001A6019680A4A0A40802149000A431A607E
:101820001968084A0A401A60FFF7C8FF08BDC04699
:10183000B4000040FFFFFDFFFF1FFEFFFFF7FFFFAB
:10184000FFFCFFFFFFFBFFFF054980230968DB0565
:1018500009695A6E0120884082435A667047C04623
:1018600068000020054A80231268DB051269012008
:10187000596E9040021C0A435A6670476800002067
:101880008023DB055A6E034B01201B681B69DA407D
:1018900090437047680000208023DB05020280B27D
:1018A000998F120E98873E3319781A70704700008E
:1018B000034B00221A70034B01221A707047C04676
:1018C000F40300203F00004072B6054B1B5C002B68
:1018D00003D1C04662B630BFF6E762B67047C04675
:1018E000F403002008B50020FFF7EEFF08BD00005C
:1018F00072B6044B1B5C002B02D1C04662B6F7E700
:1019000062B67047F4030020F0B587B003AF79608A
:10191000191CBA609C46039001C101229300FE5835
:101920006446002023689E420DD80D1C0192019B45
:10193000043D834205DD2B686B60019B013B0193F5
:10194000F5E7266004E001300E6004349042E9DBE4
:1019500001320431032AE1D107B0F0BD70B5184B54
:101960001A680123D356002B07D0012B27D1154B22
:101970001548196804684B7914E013490C6811493B
:1019800009680979481C8000890040425218043BCC
:10199000834214D0251CD1182D352D780E6EEE40C3
:1019A0000E66F4E7013B0AD30879251CC0188000B5
:1019B000101849352D78066EEE400666F2E770BDC8
:1019C000680000201404002010040020F0B58023DB
:1019D0000122DB0597B05A7000AF0320FFF774FFB8
:1019E000FEF7B6FD031C50331A78DA4B01211B6851
:1019F0005956002A00D158E1002934D0012900D0DD
:101A0000A4E1D54B6C461B683C625B796E465BB2C9
:101A10009C003B64231C0A33DB08DB00F51AEE1A3A
:101A20003D63AD46B5466D46221C0021386BFD6214
:101A300001F06DFD221CF86AFF2101F068FD3E6C8B
:101A40000C2373430A33DB08DB00E81AA60885463B
:101A500064426D467C62F400BD632D19BC627E63F6
:101A6000FD630324F3E0BC4B6C461B683C621B79AE
:101A700068465BB29C003B64231C0A33DB08DB0036
:101A8000C51AEE1AFD62AD46B5466D46221CF86ACF
:101A9000BD6301F03CFDFF21B86B221C01F037FD56
:101AA0003E6C0C2373430A33DB08DB00E81AA608FC
:101AB00085466D46F30069463D637E636542CB18FB
:101AC00003267D62BB62FE63FD6B013DFD6343D374
:101AD0003D6CB86B2E1C013EF96AB6007D64851919
:101AE0008E197A6C002A32D07A6CF86B013A7A64DB
:101AF000796C984B420052181B6806329200D058FD
:101B0000FA6B03325200521806329200D158FA6B27
:101B10000632520094467A6C944462460632920031
:101B2000D2583B1C4C33FFF7EFFE786C3A6DB96A24
:101B30008300CA5030687B6D834200D93360FB6CF0
:101B400029688B4200D22B60043D043EC9E7BD6A80
:101B50007E6AAD19BD62B7E73E6B386C3619BE625E
:101B60007E6B3D6C33183E6B9B00F3187E6BFB6302
:101B700073001B183E6B9B00F318FE6A013D36197B
:101B80003E63BE6B3B643419FC6200247C64043CFD
:101B9000704E681C1ED0B86AF96B3A6C0059125925
:101BA00009593B1C4C33F8617A61B961FFF7ACFE0F
:101BB0002A1C336818323E6D9200D6503E6B013DB0
:101BC00036593E61FE6A38693659831B7E6CF618B9
:101BD0007E64DCE733687C6C1C673D6AAD46B5E02B
:101BE0005D4A786C12685B4B127961001218891893
:101BF0001B6806318900C958A01D79604000E11CAE
:101C000084464900891862440631063289009200F0
:101C1000C958D2583B1C78684C33FFF775FE796C75
:101C20003B6DF86B8A00835031687A6D8A4200D927
:101C300032602A68934200D22B60043D043E7B6CE4
:101C4000013B7B64CCD2FD6B7E6AAD19FD63013C28
:101C500008D33E6CF86A7E64396B013EB600851984
:101C60008E19ECE73C6CBE6B013C786BA5007519D6
:101C70008600611C16D0B96A3B1C69582868B96097
:101C8000BA68A9594C33FFF73FFE334A314B12680B
:101C90001B681279386DA21818329200D050013C9E
:101CA000043DE6E73C6AA54650E0002906D001293C
:101CB0004CD1294A116805228A5631E0264A5C3007
:101CC0001268127938640478022C01D0611CC9B200
:101CD00049B203244C4352B2610051180531E4006B
:101CE000644289007C6459180024002A16D03D6C97
:101CF0000020285603267043013A4500AD180635EA
:101D0000AD000E68ED58761BF01736184640B44605
:101D10007E6C64447618B5640439E6E71C6715E008
:101D2000013A13D30C79061C1419251C1835AD0083
:101D30007D645D363678032576B26E4376003419BD
:101D40000634A400E4587E6CF450E9E7BD4617B0B1
:101D5000F0BDC046680000201404002008B5FFF75D
:101D600035FEFFF7FBFD0C4B1B685B785BB2002B6D
:101D700005D0012B0FD1094B1B685D3302E0074BE7
:101D80001B685C331A78013AD1B2100601D419707D
:101D900001E002221A7008BD680000200000002047
:101DA0008023DB055868400DC0B2704730B58023F2
:101DB000DB055A680F23134083420ED001DA01334A
:101DC00000E0013B8022D20555680F211C1C8D4389
:101DD0000C40291C21435160EEE730BD30B5802313
:101DE000DB055B685B0DDBB283420DD001DA0133AA
:101DF00000E0013B8022D20555680449DCB264054D
:101E0000294021435160EFE730BDC046FFFF1FE08E
:101E100038B5114C80232568DB051048291C0422A5
:101E20005B6801F06BFB28780007000F0F2800DDCE
:101E30000F200B4B1B68D860C0B2FFF7B7FF2368B9
:101E40005888C004000EFFF7C9FF8023DB055968DE
:101E5000044A0A405A6038BD1004002004000040C3
:101E600068000020FFFEFFFF002806D1094B1B6819
:101E70001A1C2C3210782B3307E0012809D1054BAE
:101E80001B681A1C4832107847331B78C01A01307F
:101E9000FFE7704710040020002803D1054B1B68A2
:101EA0002E3304E0012804D1024B1B684A33187812
:101EB000FFE7704710040020002803D1054B1B6882
:101EC0002D3304E0012804D1024B1B6849331878F4
:101ED000FFE770471004002008B5FFF799FFFFF7F0
:101EE0002BFBFFF7ADFBFFF7D5FB00F079FB08BD3F
:101EF00010B501240A4B0C40024207D0E205094804
:101F00001C68044014431C60074B06E02206074887
:101F10001C68044014431C60054B197010BDC0467A
:101F2000B4000040FFFF7FFF99020020FFFFFFFE8B
:101F30009802002038B5184B01251B78002B02D1E0
:101F400000F0B8FF0540154CEB05154A2568154013
:101F50001D43144B25601B780125002B03D100F095
:101F6000A9FFE84005402B060F4A256815401D4390
:101F7000256000F0A7FF031C20680F252B40A84315
:101F80001843206000F0AAFF054028012568F023CF
:101F90009D430543256038BD99020020B4000040F0
:101FA000FFFF7FFF98020020FFFFFFFEF0B58023B8
:101FB000DB05996C802212060A439A649A6C8FB0F2
:101FC0001A4300AF041C9A6400D099E06946534B51
:101FD000B9611A687F231A40514B7A631B68BA6251
:101FE0003B631A795B79D3187A6BFB625A435500CD
:101FF000D31D2E1CDB08DB000836C81AF608854600
:10200000F6006B46801B85467862211C181CFB611C
:1020100001F07DFA2A1C211C786A01F078FA6A46E0
:10202000921B954668462A1C211C386201F06FFA03
:10203000FE6A7B6B351C013B5D4373437200524269
:102040007A617A6AF9695B00D3184D193B61BB6A02
:10205000013BBB6231D33869FB6A00198446013BFE
:1020600026D3386B0279934202DAC218127A03E05F
:10207000396B9A1A8A18127BB86A92011218294988
:102080009200521811686046090BE9541268796091
:102090001205120DBA605A00111CBA6842527868D3
:1020A000C1B27143101C59183A6A49008852D6E7E8
:1020B000F96A7A696D1AA418C9E71B4C796B012378
:1020C0006170E3700320B323211CFA69237100F0CF
:1020D000BFFF7A6B0023627002250320211C7A6AFD
:1020E0002371E57000F0B4FF7B6B03206370211C4B
:1020F000D6233A6AE570237100F0AAFFB8698546D5
:102100008023DB059A6CBD46520052089A64996C94
:10211000064A0A409A640FB0F0BDC046C0000040B5
:10212000140400200000024070000020FFFFFFBFE9
:102130000002064B000A0138002258609A6005220E
:102140001A60C0461A68D103FCD5704710E000E061
:10215000044B054900221A6059609A6005221A60F2
:102160007047C04610E000E0FFFFFF0010B580227E
:10217000D20554680F21640C0C400823012C04D0B4
:102180005468640C21405B1ADBB21C1C0A4B51687A
:102190001B680F229B681140591A084B8918594334
:1021A000074B4443C9180748FDF7A6FFC1B2201CDE
:1021B000FDF7A2FF10BDC04668000020F916000020
:1021C0004E250000400D030010B5044C0448A368E0
:1021D000C01AFFF7CBFF0023236010BD10E000E022
:1021E000FFFFFF00F7B5234800F0D4F9FFF7A0FF89
:1021F000214F0025214E224CB7421FD28036F31BBF
:102200002026832B00DC9E100123667000203A1CE0
:10221000211CB610E370207100F01AFF3B1C321C29
:10222000013A08D3002D04D116491868884200D01D
:102230001D1C0433F4E7B600BF19DBE70E49042286
:102240006B1A01270193E270A723211C01AA002029
:1022500067702371843600F0FBFE0423751BE37066
:102260000020A823211C01AA01956770237100F0AA
:10227000EFFEF7BD801A06002C0400208007002026
:1022800070000020CDCDCDCD014B18686030704777
:1022900068000020044B1B681879044B18301B6839
:1022A000800018187047C046140400206800002001
:1022B00010B58024E405A26C80231B061343A3649D
:1022C000A36C80222343A36400215200054801F03F
:1022D0001EF9A36C5B005B08A364A26C024B134065
:1022E000A36410BD00000240FFFFFFBFF7B5061E4C
:1022F00058D0012800D0BCE0604B80251C68ED055B
:10230000231C34331A78A9685D4B024012050B4038
:102310001343211CAB60353104225A4801F0EEF81A
:10232000211C39310422584801F0E8F8211C3D31C4
:102330000422564801F0E2F8211C4131042254489D
:1023400001F0DCF8231C46331978524B7F221868C1
:1023500011409043021C0A431A60231C4C33198815
:102360004D4B09051A68090D120B12030A431A6036
:10237000221C4A3218681178484A090302400A436D
:102380001A60231C4F331A78A96C3F27444B3A40FC
:1023900012060B401343AB64231C47331B784834AD
:1023A000019351E0354B80251C68ED05A279A968A1
:1023B000D206334BD20F12050B401343211CAB60E6
:1023C000183104222F4801F099F8211C1C310422F5
:1023D0002D4801F093F8211C203104222B4801F0F4
:1023E0008DF8211C24310422294801F087F8231C90
:1023F0002A331978274B7F22186811409043021C1A
:102400000A431A60244B218E1A680905120B090D24
:1024100012030A431A60221C2E32186811781F4AD0
:10242000090302400A431A60231C32331A78A96C4C
:102430003F271B4B3A4012060B401343AB64231C4F
:102440002B331B782C3401932478FFF731FFAA6CCF
:1024500080239B011343AB64AB6C019ABB433A40AE
:102460001343AB643C400F4BAF6CA4011F402743A8
:10247000AF640D4B1B685E70F7BDC04610040020B2
:10248000FFFFEFFFD8000040DC000040E00000400C
:10249000E4000040C0000040A8000040FF0FF0FF33
:1024A000FFFFFFC03FF0FFFF6800002008B50F4BA3
:1024B0001B68596109290DD1002804D10C4B1B68F8
:1024C0005C33187006E0012804D1094B00221B6818
:1024D0005D331A70FFF70AFF064B0022DA70802383
:1024E000DB051A705A7001221A7008BD68000020BE
:1024F00000000020F403002008B5FFF7D7FFFFF726
:102500002DFC08BD38B5051C0C1CFFF721FE211C55
:10251000281CFFF7CBFF80230122DB055A70032024
:10252000FFF7E6F9FFF71AFAFFF74EFE38BD8023F2
:10253000DB05986C8004C00F7047000038B580221E
:10254000D2055168051C50680F23400C19401840F3
:102550000824012804D05268520C1340E41AE4B253
:102560000F23591A074B08485943084BC918FDF760
:10257000C3FD074B211C5843FDF7BEFD291CFDF789
:10258000BBFD38BDF9160000400D03004E250000CC
:1025900040420F0038B58022D2055168051C5068B2
:1025A0000F23400C194018400824012804D0526819
:1025B000520C1340E41AE4B20F23591A054B064893
:1025C0005943064BC918FDF797FD211C6843FDF7D9
:1025D00093FD38BDF9160000400D03004E250000A4
:1025E000F8B500212F48102200F091FF2E4B00205B
:1025F0001C6804212379013BDBB2FF2B0CD0E218CD
:10260000127A0D1C914200D9151CE9B2051C9042AA
:1026100000D2151CE8B2EEE70423013BDBB2FF2B2E
:1026200015D0204D9A00521916681D07360136093B
:102630003543156016681D4D35401560176807262F
:102640001B4D1E40B6043D4035431560E5E7237938
:10265000013BDBB2FF2B0AD0E218127A114D920037
:10266000521916688025AD0235431560F0E7114B0D
:102670001F241B68802299800F4B21401D68D205C2
:10268000A543294319600F210840146B41010B48F1
:102690002040084310631968094A01200A401A6063
:1026A000F8BDC0460001004014040020FFFFFDFFFC
:1026B000FFFFE3FF68000020D40000401FFEFFFF83
:1026C0007F80FFFF70B500291CD1204B19680B7962
:1026D000013B3AD3CA18127A1D4C920012199C0081
:1026E00004192568EE031568B60DAD0AAD02354331
:1026F000156025781668174C6D06ED0B34402C4399
:102700001460E5E7012920D1104B1A685379013B89
:102710001BD3D118097B0E4C890009191479E418D0
:10272000A40025580C68ED03A40AAD0DA4022C43A7
:102730000C6014790E68E418A400255C054C6D0645
:10274000ED0B34402C430C60E1E770BD1404002015
:1027500000010040FF03FEFF7FB5041C081C0D1C98
:10276000FFF782FB061C281CFFF796FB134B051C8A
:102770001B685B885E434643F6112660FFF7D7FE71
:10278000002803D023685D43ED0925602368732189
:10279000594366225A43C90961600191084902936D
:1027A0000323D2094B700423A2600392CB70002054
:1027B000472301AA0B7100F04BFC7FBD14040020DD
:1027C00070000020F0B585B0051C0E1C171CFFF72B
:1027D0005BFD0190002F40D1414802681279944678
:1027E00052005342009302AB99183B1C071C0098FF
:1027F00083421CD0002E0BD19C1864002C19043C81
:102800002468C818E403A40D0238048041240CE0B5
:10281000012E0AD19C1864002C19043C2478C81895
:102820006406640E023804804224023BDFE72D4D2B
:10283000624602236A700020291C02AAEB702C71E8
:1028400000F006FC3B6800201B79291C6B700423F8
:10285000EB7043232B71019A3DE0012F3DD1204FB6
:10286000386841794A1E520094460B1C02AA9444CF
:10287000013B19D3002E09D104796246E418A40063
:102880006459E403A40D148041240AE0012E08D108
:1028900004796246E418A400645D6406640E148042
:1028A000422402225242E2E70E4D022369700020C8
:1028B000291C02AAEB702C7100F0CAFB3B680020B7
:1028C0005A79291C6A700422EA7043222A711A7903
:1028D000019B92009A1800F0BBFB05B0F0BDC0460A
:1028E0001404002070000020F0B585B0039300268A
:1028F0000CAB051C0C1C02929E57FFF7C5FC019007
:10290000641000D1C3E0281C311CFFF7DBFE614BD3
:10291000301C1B68092150331B78002B00D101218A
:10292000FFF7C4FDFFF752F8002E52D10B9F5A4B10
:10293000012F04D01B68321C00932B1C38E0186850
:10294000321C84462B1C674639798A421ADA019F69
:1029500091007958029FB94204D91868C703BF0D86
:102960003F1B06E0039FB94209D21868C703BF0D99
:10297000E7194A49BF05FF0B01400F431F600132B1
:102980000433E0E7281C00217DE0019F9100795885
:102990000A9FB94211D919784806400E001B844697
:1029A00067467F2007408143394319700132043361
:1029B000009801798A42E8DB07E00A9FB942F5D224
:1029C00019784806400E2018E9E7281C012100224A
:1029D0005AE0012E94D10B9F2F4B012F03D01B687F
:1029E000009300233FE0196800234A79934220DADC
:1029F0000879019FC01880003A58029FBA4205D951
:102A000028180268D703BF0D3F1B07E0039FBA4297
:102A10000DD228180268D703BF0DE719BF05FF0BB9
:102A2000BC461E4A07683A406746174307600133B1
:102A3000DBE7281C0021012226E00098019F017994
:102A4000C918890078580A9FB84211D969180878BE
:102A500047067F0E3F1BBC4662467F273A40B8437D
:102A6000104308700133009F79798B42E5DB08E061
:102A70000A9FB842F6D26918087847067F0EE71910
:102A8000E9E7281C01210A1CFFF79CFE38E705B086
:102A9000F0BDC04600000020140400207F00FEFFAF
:102AA000F0B58BB003900D1CFFF7EEFB424C059088
:102AB000002D2ED1206808AE0279531C5B005B42CA
:102AC0005100049306AB5B187618029301962B1CF9
:102AD0000498023B83420ED0039FC8184000381868
:102AE0000668029FF6030078B60DFE524006019F6D
:102AF000400EF852ECE7314E40237270311C022731
:102B0000002006AA3371F77000F0A2FA21680B7951
:102B10002FE0012D35D1226806AE0192507908AF21
:102B20004200B618BF18031C0496BC460022023AA5
:102B3000013B11D30199039F0E79F618B600BE1917
:102B400037683678F903890D0F1C049976068F5281
:102B5000760E61468E52EAE7184E4023707006AA40
:102B600002270020311C3371F77000F071FA2268DF
:102B700053790020311C08AA7370F770307100F08F
:102B800067FA0F4B281C1B68092150331B78002B58
:102B900000D10121FFF7B0FC236808495A791B795D
:102BA0000020D3184B700423CB70059A40230B717F
:102BB00000F04EFA0BB0F0BD1404002070000020AD
:102BC00000000020F0B589B00023041C05A80D1CEE
:102BD000059306930793FFF7BFFD002D34D1254BD6
:102BE0001B681B79581C80009B00E61840422B1C78
:102BF000043B834208D0F21817681F4939437F27E6
:102C0000116039431170F3E706980123059A00908B
:102C10000193201C079B02951849FFF765FE201CB5
:102C2000291CFFF73DFF06990222079B00910192A4
:102C3000201C059A02957F21FFF756FE201C291CB7
:102C4000FFF72EFF09B0F0BD012DDDD1094B1A6849
:102C50005379013BD8D311790748C91889000E5917
:102C60003043085111797F26C9188900085D304327
:102C70000855EEE71404002080FF0100FF03000068
:102C8000014B18607047C0461804002070B5FDF76E
:102C900053FC061CFEF7EAFB284C051C311C20687F
:102CA000102200F02BFC2B79226880219375244B95
:102CB000C9051A1C0832A260636089696269090A41
:102CC00011702221D171597E187E09020143987E2C
:102CD000E26800040143D87E00060143080A11702F
:102CE0005070080C090ED170597F9070187F09023E
:102CF0000143987F00040143D87F00060143080A7E
:102D000011715071080C090ED171191C2D331B78EB
:102D10002C3109781B020B4313721B0A5372A369EF
:102D2000907102229A700F22DA70E3691A68002209
:102D30001A6004221A715A7170BDC04680000020CA
:102D4000D03F000038B5FDF7F7FBFEF78FFB134CC3
:102D5000A56A00F06DFB6860FFF798FF104B226BCF
:102D60001B681B88190A517113710221042B03D0AF
:102D70000021092B00D10321231C3C339171012236
:102D80005A7000229A7000F04FFB064B5860802367
:102D9000DB059A69236C1A7038BDC046800000209C
:102DA000180400201803002008B5084A916C4B78DD
:102DB0000749DBB20B72012B05D0022B05D1536CF6
:102DC00001225A7001E0FEF73FFD08BD800000209F
:102DD00018030020094B10B51B7A094C012B05D0B4
:102DE000022B05D1626C0023537001E0FEF73AFD1F
:102DF000636B7F211A788A431A7010BD1803002074
:102E000080000020F8B5194D0024194E337A012BAB
:102E100007D0002B18D0022B17D1164B5B6C5C78B7
:102E200013E0FEF72DFD041C002D0BD1FEF71AFD5B
:102E30002E23FF33013B002B01D0C046FAE7FEF7FB
:102E400003FD0A4D013D00E01C1C0A4FBA6C53788B
:102E5000327A9A4206D0FFF7BDFFBB6C044A5B781A
:102E6000137201E0002CD0D1F8BDC046FF2C010048
:102E70001803002080000020024B9B6C1878C0B221
:102E80007047C04680000020024B9B6C9878C0B20F
:102E90007047C04680000020014B9B6C98707047C3
:102EA00080000020024B9B6C587AC0B27047C0462D
:102EB00080000020024BDB691868C0B27047C04632
:102EC00080000020044AD36992691979D078814240
:102ED00001D21879C0B2704780000020044AD3693B
:102EE00092695979D078814201D25879C0B270473D
:102EF00080000020034BA0225B6C1A701A78A02A75
:102F0000FCD0704780000020024B1B6D1878C0B2C7
:102F10007047C04680000020024B1B6D9878C0B2FD
:102F20007047C046800000200E4B30B51A6DFF245C
:102F300014700D4C5865216005788478996A6C434B
:102F40000579407964194006400E60430860586C6A
:102F5000A0210170996C1378FF2B02D10B78022B02
:102F6000F9D030BD8000002018030020014B1B6801
:102F7000188870471804002008B5FFF743FF024B7C
:102F80000022DA6008BDC0461803002070B5074B68
:102F9000074C1A6BE668011C9579986B2A1C8019FE
:102FA000751900F0ABFAE56070BDC04680000020E6
:102FB0001803002008B5074BDB68002B09D0064A30
:102FC000DBB2506B7F21194001703C329370FFF7E8
:102FD000EBFE08BD180300208000002073B56C468E
:102FE000E271194A0734D56D2E7886422AD1FF2026
:102FF00028709366131C9C331B6820789B688000A4
:10300000116654661871114B06980C781860887810
:10301000936A60430C79497900194906490E414386
:103020001960516CA0230B70D16D936C0A78FF2A44
:1030300002D11A78002AF9D00A78FF2A02D11A7828
:103040000A2AF3D073BDC046800000201803002078
:1030500070B5144CE36B1D79EDB2012D21D1854083
:1030600058781E78000230439E7836043043DE786C
:1030700036063043284214D0FF2018710A482164D4
:1030800002608C780D78C9786C434906490E074A6E
:103090006143906A526C0160772111701A79FF2A9E
:1030A000FCD070BD0001002018030020800000202B
:1030B000014B5B6C1878704700010020014B5B6C82
:1030C0001870704700010020014B5B6C98787047C6
:1030D00000010020014B5B6C9870704700010020DC
:1030E000024BDB689872000AD8727047800000209B
:1030F000024B5B699872000AD8727047800000200A
:10310000002303600B601B4BF7B59A4230DC1312AF
:10311000194C122B1BD89B00E418E46E002C27D00E
:10312000E368013B5D1C23D0D5B2019565681E1C88
:10313000EF5C019D013BED1BF4D42768B300DB5924
:10314000002B15D05B190360A3689B5D0EE0E36A5A
:10315000666A013B0CD35D00755B551BF9D4266A8A
:103160009B00F25852190260A26AD3585D1B0D6091
:10317000F7BDC046FFEF000080000020C02208B568
:10318000D2000B4B904206D15B6C1A78052A0DD009
:1031900005221A700AE05B6B84221B7892005B06A2
:1031A0005B0E9B18984201D1FFF714FE08BDC04684
:1031B00080000020014B18607047C0461C040020AE
:1031C000014B18687047C0461C040020014B186072
:1031D0007047C04620040020014B18687047C04665
:1031E00020040020014B18687047C0466C02002084
:1031F000F0B585B01E1C0CAB1B7800275BB20190AC
:103200000D1C141C0097012B03D12A4B1B689B68D3
:103210000093002028493823021C0B71FFF718FF88
:10322000331C0020013B14D3009FFA18019F920029
:10323000BA1811680A27C903890D4F431278BC4692
:1032400052066044520EEDD00A214A43D20980183A
:10325000E8E7311CFCF702FF6E88071C002E02D144
:103260004023636007E0B001391CFCF7F7FE6E28CD
:1032700000DD6E2060602B79642253430A9A0B991B
:1032800053432A780B41002A02D0626853439B11B2
:103290000A49A36002234B707C235B42CB70002061
:1032A0005F2302AA029603970B71FFF7D1FE05B0C8
:1032B000F0BDC0466802002010030020700000200E
:1032C00070B59300C018C9180023043B013A04D319
:1032D000C558CE58AC19C450F7E770BD38B5041CBA
:1032E000537890788D78C01A4000CB7801309840A0
:1032F0004B788003E91A4900D37801319940FCF7F3
:10330000FBFE0B49051C0020B423021C0B71FFF7C8
:103310009FFE084B1B685B689A00A218043A013BA9
:1033200004D31068810B69431160F7E738BDC046CC
:103330001003002068020020F7B5051C00910192DF
:103340001F1C1C1C013C0FD3A600A8590899FCF7B0
:1033500085FE009A1378002B03D0019A1357584327
:1033600080118003A851EDE7074C0E23A3710420C0
:1033700044232A1C211C67702371E070FFF768FE4C
:103380000023A371F7BDC0467000002070B5049CF7
:10339000061C0D1C101C191CFCF7AEFEA300F21835
:1033A000ED180023043B013C05D3E958D6584143AE
:1033B000711AD150F6E7012070BD000008B5034B2B
:1033C00018600078FFF794FE08BDC0462404002072
:1033D000014B18687047C0467002002038B5114C88
:1033E000102520682A1C0021103000F090F8206879
:1033F0002A1C0021203000F08AF8206804252A1CAD
:103400000021303000F083F820682A1C002134307D
:1034100000F07DF8206800214019342200F077F890
:1034200038BDC0467002002000487047E23D0000F1
:10343000C720400070470000004870470C3E000065
:103440008A235843014B18187A307047E23D000038
:1034500008B5FEF70BF8054B02791B685A604279F4
:103460009A6082791A61C279DA6008BD6802002028
:1034700010B5094C201CFDF7F3FF201C1430FDF79C
:1034800055F8201C2830FFF7FBFBFFF7E1FF03484E
:10349000FFF79CFE10BDC046E23D0000703F0000FB
:1034A0000D4B10B51B688A241B785C430B4B78349A
:1034B000E4180B4BA01C1860FDF7DEFF201C5230F7
:1034C000FDF740F8201C5430FFF774FE201C8230BA
:1034D000FFF774FF10BDC04674020020E23D0000FB
:1034E00028040020014B1B681870704774020020EC
:1034F000014B1B68187870477402002010B5002338
:10350000934203D0CC5CC4540133F9E710BD031CD3
:103510008218934202D019700133FAE77047FFFF17
:103520000400002000000000FF0000000000000078
:10353000000000000000000000000000000000008B
:10354000000000000000000000000000000000007B
:10355000000000000000000000000000000000006B
:10356000000000000000000000000000000000005B
:10357000000000000000000000000000000000004B
:1035800000000000000000009C0200201703002043
:1035900001000000000000010300840000000000A2
:1035A0005F03002000000000000000005303002023
:1035B0005E02002052020020210200203803002079
:1035C000180300204801002028030020020000000A
:1035D0004C0300204B0300203F03002007000000A5
:1035E000370300205002002040020020300200205B
:1035F0002D02002000000000250200203E030020D4
:1036000000000000000000000000000000000000BA
:10361000FC010020E8010020000000000000000084
:1036200000000000D4010020C001002000000000C4
:1036300000000000A8010020000000008C01002014
:1036400000000000000000000000000074010020E5
:10365000600100204C0100201D0200201802002003
:103660000000000032030020002000604401002020
:10367000300300205C010020010000000500000074
:10368000C000002031030020700100200100000074
:103690000100000038010020870100208401002083
:1036A000030000000405070010200000D8000020DF
:1036B000A10100209C010020050000000801060176
:1036C0000400102030310000CC000020BB0100209D
:1036D000B8010020030000000803060010200000CD
:1036E00098000020D2010020D0010020020000003C
:1036F00004060010C4000020E6010020E4010020C0
:103700000200000002100010B0000020F8010020AC
:10371000BC00002003000000001011008000002009
:10372000120200200C020020060000001708080CFE
:103730000A0C0020304050700100000000002006FC
:103740000100010000002001021E000100FF000036
:1037500000200202600090003C020020006009018D
:103760000001000000000000000000000000000058
:10377000050000483248304D4500000000004D492A
:1037800050000000000000047C0300209C03002087
:10379000B4030020EC030020FFFFFFFFFFFFFFFF4B
:1037A000FFFFFFFFFFFFFFFFFFFFFFFFFFFFFFFF29
:1037B000FFFFFFFFFFFFFFFFFFFFFFFFFFFFFFFF19
:1037C000FFFFFFFFFFFFFFFFFFFFFFFFFFFFFFFF09
:1037D000FFFFFFFFFFFFFFFFFFFFFFFFFFFFFFFFF9
:103DD00001014832483050415241303030303030AB
:103DE00030300000B80B02000A030102000002009C
:103DF0000000200B14034F6E355F4B657900000007
:103E000000000000000005001E0A04000F4288396F
:103E1000300081389903C006600000009103000063
:103E2000000000007C2A050052870101010113E116
:103E300001167D150000280A1D0480000000050001
:103E4000017C2A050052870101010113E101167D61
:103E50001500280A1D048000000000050F42883963
:103E6000300091389903C0066000000091070000FF
:103E7000000000007C2A050067870101010126E19E
:103E800001167D2A00001E051804800000000500B0
:103E9000017C2A050052870101010113E101167D11
:103EA0001500280A1D038000000000053C1E0300C9
:103EB0000000C2023F013200CEFF3200CEFF0200FE
:103EC00010FFDC0500000000C2025001FF7F0080EF
:103ED000FF7F0080020010FFDC0500006E372341E9
:103EE0001900000000000F42883930009138990312
:103EF000C0066000000091070000000000007C2A5E
:103F0000050067870101010126E101167D2A0000F5
:103F10001E051804800000000500017C2A050052DF
:103F2000870101010113E101167D1500280A1D001A
:103F30008000000000053C1E03000000C2023F019B
:103F40003200CEFF3200CEFF020010FFDC05000081
:103F50000000C2025001FF7F0080FF7F008002004E
:103F600010FFDC0500006E3723411900000000003F
:103F70000000FFFFFFFFFFFFFFFFFFFFFFFFFFFF4F
:103F8000FFFFFFFFFFFFFFFFFFFFFFFFFFFFFFFF41
:103F9000FFFFFFFFFFFFFFFFFFFFFFFFFFFFFFFF31
:103FA000FFFFFFFFFFFFFFFFFFFFFFFFFFFFFFFF21
:103FB000FFFFFFFFFFFFFFFFFFFFFFFFFFFF01010D
:103FC0004D425401483248300000000000400000DB
:103FD000EEEE040201010101EEEEEEEE000F0F1015
:103FE000002209012E020000230516205424190086
:103FF000000000000000000000004000ADE10000F3
:00000001FF
